:100000000C943E000C9448000C9448000C9448005A
:100010000C9448000C944A000C9448000C9448003E
:100020000C9448000C9448000C9448000C94480030
:100030000C9448000C9448000C9448000C94480020
:100040000C9448000C9448000C9448000C94480010
:100050000C9448000C9448000C9448000C94480000
:100060000C9448000C9448000C9448000C944800F0
:100070000C9448000C9448000C94480011241FBEB6
:10008000CFEFD0E1DEBFCDBF0E94BD000C94CC000D
:100090000C9400001F920F920FB60F9211248F93B1
:1000A0009F9385B192E0892785B99F918F910F9099
:1000B0000FBE0F901F901895880F816083BF8895A1
:1000C0000895CF93DF9398B1907C98B997B19F63CF
:1000D00097B998B1926298B920E030E095E0ACE031
:1000E000F4E1E9E051E13BC0913079F0913028F042
:1000F000923099F0933011F518C0882311F091E0F7
:1001000001C093E048B14F2717C0882311F092E057
:1001100001C090E048B14A270FC0882311F093E056
:1001200001C091E048B14E2707C0882311F090E04C
:1001300001C092E048B1452748B909C0882311F0B1
:1001400090E001C093E048B1427F48B9449AC7E8C3
:10015000D3E12197F1F700C000002F5F3F4F261732
:10016000370714F288B1807C88B9DF91CF91089568
:100170005C9A08955C980895089582E084B98FEFA1
:1001800085B91BB88AB18E7E8AB980E068EC70E0D0
:0C0190000E946100FACF0895F894FFCFA0
:00000001FF
