:100000000C943E000C9453000C9453000C94530039
:100010000C9453000C9455000C9453000C94530012
:100020000C9453000C9453000C9453000C94530004
:100030000C9453000C9453000C9453000C945300F4
:100040000C9453000C9453000C9453000C945300E4
:100050000C9453000C9453000C9453000C945300D4
:100060000C9453000C9453000C9453000C945300C4
:100070000C9453000C9453000C94530011241FBE95
:10008000CFEFD0E1DEBFCDBF11E0A0E0B1E0EEE503
:10009000FFE102C005900D92A830B107D9F70E9488
:1000A000FE080C94AD0F0C9400001F920F920FB637
:1000B0000F9211242F933F938F939F93EF93FF936E
:1000C000DF93CF93CDB7DEB785E290E025E230E055
:1000D000F901308122E02327FC012083CF91DF91B9
:1000E000FF91EF919F918F913F912F910F900FBEB4
:1000F0000F901F901895DF93CF930F92CDB7DEB777
:10010000898383E590E02981222F30E0220F331F7D
:100110002160FC01208388950F90CF91DF91089595
:100120000F931F93DF93CF93CDB7DEB7C059D04065
:100130000FB6F894DEBF0FBECDBF9E0122573F4FD2
:10014000F9018083CE0181579F4FFC017183608349
:1001500088E290E028E230E0F9012081246CFC0183
:1001600020838BE290E02BE230E0F90120812F6BBD
:10017000FC01208387E290E02BE3FC0120838AE2EC
:1001800090E020E8FC012083198288E290E028E2D8
:1001900030E0F90120812272FC012083CE018257D8
:1001A0009F4FFC018081882311F40C94B1083CC35B
:1001B0008981882F90E08133910509F4A4C08233AE
:1001C000910524F48033910551F059C28233910591
:1001D00009F42DC18333910509F4BDC150C281E0FA
:1001E000898388E290E028E230E0F90120812870DC
:1001F000FC0120838BE290E0FC0180818BE290E0A7
:10020000FC01108280E090E0A0E4B0E48A839B834C
:10021000AC83BD836A817B818C819D8120E030E04D
:100220004AE753E40E940A0CDC01CB018E839F83D2
:10023000A887B98711E06E817F818885998520E044
:1002400030E040E85FE30E94640D88230CF010E08A
:10025000112329F081E090E09B878A8746C011E056
:100260006E817F818885998520E03FEF4FE757E4D5
:100270000E94040D18160CF010E0112361F16A8140
:100280007B818C819D8120E030E040E251E40E943E
:100290000A0CDC01CB01BC01CD010E94360ADC0155
:1002A000CB019B878A8712C089E190E09D878C876C
:1002B0008C859D858C01C8010197F1F78C011D8704
:1002C0000C878A859B8501979B878A878A859B8572
:1002D000009751F7A9C26E817F81888599850E9418
:1002E000360ADC01CB019B878A878A859B859F879D
:1002F0008E878E859F858C01F8013197F1F78F01EC
:100300001F870E8791C282E0898388E290E028E20D
:1003100030E0F90120812170FC0120838BE290E024
:10032000FC0180818BE290E0FC01108280E090E093
:10033000A0E4B0E4888B998BAA8BBB8B6889798900
:100340008A899B8920E030E04AE753E40E940A0C46
:10035000DC01CB018C8B9D8BAE8BBF8B11E06C894C
:100360007D898E899F8920E030E040E85FE30E942C
:10037000640D88230CF010E0112329F081E090E057
:10038000998F888F46C011E06C897D898E899F89FD
:1003900020E03FEF4FE757E40E94040D18160CF0E1
:1003A00010E0112361F1688979898A899B8920E0AD
:1003B00030E040E251E40E940A0CDC01CB01BC01B8
:1003C000CD010E94360ADC01CB01998F888F12C0C3
:1003D00089E190E09B8F8A8F8A8D9B8D8C01C8016B
:1003E0000197F1F78C011B8F0A8F888D998D0197EA
:1003F000998F888F888D998D009751F715C26C89D8
:100400007D898E899F890E94360ADC01CB01998FF4
:10041000888F888D998D9D8F8C8F8C8D9D8D8C0173
:10042000F8013197F1F78F011D8F0C8FFDC183E02B
:10043000898388E290E028E230E0F9012081207190
:10044000FC0120838BE290E0FC0180818BE290E054
:10045000FC01108280E090E0A0E4B0E48E8F9F8FDA
:10046000A8A3B9A36E8D7F8D88A199A120E030E06B
:100470004AE753E40E940A0CDC01CB018AA39BA348
:10048000ACA3BDA311E06AA17BA18CA19DA120E03A
:1004900030E040E85FE30E94640D88230CF010E038
:1004A000112329F081E090E09FA38EA346C011E0C4
:1004B0006AA17BA18CA19DA120E03FEF4FE757E40B
:1004C0000E94040D18160CF010E0112361F16E8DDE
:1004D0007F8D88A199A120E030E040E251E40E94A4
:1004E0000A0CDC01CB01BC01CD010E94360ADC0103
:1004F000CB019FA38EA312C089E190E099A788A7A2
:1005000088A599A58C01C8010197F1F78C0119A75D
:1005100008A78EA19FA101979FA38EA38EA19FA143
:10052000009751F781C16AA17BA18CA19DA10E9476
:10053000360ADC01CB019FA38EA38EA19FA19BA7AE
:100540008AA78AA59BA58C01F8013197F1F78F0145
:100550001BA70AA769C184E0898388E290E0FC01B7
:10056000808188E290E0FC0110828BE290E02BE237
:1005700030E0F90120812078FC01208380E090E0C8
:10058000A0E4B0E48CA79DA7AEA7BFA76CA57DA5EE
:100590008EA59FA520E030E04AE753E40E940A0CB4
:1005A000DC01CB0188AB99ABAAABBBAB11E068A96E
:1005B00079A98AA99BA920E030E040E85FE30E9486
:1005C000640D88230CF010E0112329F081E090E005
:1005D0009DAB8CAB46C011E068A979A98AA99BA9FB
:1005E00020E03FEF4FE757E40E94040D18160CF08F
:1005F00010E0112361F16CA57DA58EA59FA520E0DB
:1006000030E040E251E40E940A0CDC01CB01BC0165
:10061000CD010E94360ADC01CB019DAB8CAB12C030
:1006200089E190E09FAB8EAB8EA99FA98C01C80198
:100630000197F1F78C011FAB0EAB8CA99DA9019717
:100640009DAB8CAB8CA99DA9009751F7EDC068A913
:1006500079A98AA99BA90E94360ADC01CB019DAB2E
:100660008CAB8CA99DA999AF88AF88AD99AD8C0151
:10067000F8013197F1F78F0119AF08AFD5C0198292
:1006800088E290E0FC01808188E290E0FC01108229
:100690008BE290E0FC0180818BE290E0FC01108213
:1006A00080E090E0A0E4B0E48AAF9BAFACAFBDAF18
:1006B0008E01025C1F4F6AAD7BAD8CAD9DAD20E01D
:1006C00030E04AE753E40E940A0CDC01CB01F80158
:1006D00080839183A283B383CE01CE9611E0FC0187
:1006E000608171818281938120E030E040E85FE3A6
:1006F0000E94640D88230CF010E0112349F0CE0114
:100700008E5B9F4F21E030E0FC01318320836EC07F
:10071000CE01CE9611E0FC016081718182819381CE
:1007200020E03FEF4FE757E40E94040D18160CF04D
:1007300010E0112309F449C06AAD7BAD8CAD9DADCD
:1007400020E030E040E251E40E940A0CDC01CB01E1
:100750008E010E5B1F4FBC01CD010E94360ADC01E9
:10076000CB01F8019183808327C0CE018C5B9F4F22
:1007700029E130E0FC0131832083CE018C5B9F4F67
:10078000FC01808191818C01C8010197F1F78C01F6
:10079000CE018C5B9F4FFC0111830083CE018E5BE9
:1007A0009F4F9E012E5B3F4FF901208131812150E7
:1007B0003040FC0131832083CE018E5B9F4FFC01D2
:1007C00080819181009789F62FC08E010E5B1F4FAB
:1007D000CE01CE96FC0160817181828193810E945D
:1007E000360ADC01CB01F80191838083CE018A5B5C
:1007F0009F4F9E012E5B3F4FF90120813181FC010B
:1008000031832083CE018A5B9F4FFC0180819181DF
:100810008C01C8010197F1F78C01CE018A5B9F4FD3
:10082000FC01118300830000CE0181579F4FFC0122
:1008300080819181181619060CF4BACC9CC4898168
:10084000882F90E08133910509F4F6C08233910539
:1008500024F48033910551F0A0C38233910509F44B
:10086000D0C18333910509F4B2C297C383E0898371
:1008700088E290E028E230E0F90120812870FC0154
:1008800020838BE290E0FC0180818BE290E0FC0110
:1008900010829E01285B3F4F80E090E0A0E4B0E42E
:1008A000F90180839183A283B3838E01045B1F4F80
:1008B000CE01885B9F4FFC016081718182819381B1
:1008C00020E030E04AE753E40E940A0CDC01CB014F
:1008D000F80180839183A283B383CE01845B9F4F11
:1008E00011E0FC01608171818281938120E030E020
:1008F00040E85FE30E94640D88230CF010E01123B0
:1009000049F0CE01805B9F4F21E030E0FC01318354
:10091000208374C0CE01845B9F4F11E0FC01608195
:1009200071818281938120E03FEF4FE757E40E947D
:10093000040D18160CF010E0112309F44DC0CE017F
:10094000885B9F4FFC01608171818281938120E0EF
:1009500030E040E251E40E940A0CDC01CB018E0140
:10096000005B1F4FBC01CD010E94360ADC01CB01A8
:10097000F8019183808327C0CE018E5A9F4F29E1D1
:1009800030E0FC0131832083CE018E5A9F4FFC0161
:10099000808191818C01C8010197F1F78C01CE0112
:1009A0008E5A9F4FFC0111830083CE01805B9F4FC5
:1009B0009E01205B3F4FF901208131812150304061
:1009C000FC0131832083CE01805B9F4FFC0180813D
:1009D0009181009789F6C5C38E01005B1F4FCE0140
:1009E000845B9F4FFC0160817181828193810E94B1
:1009F000360ADC01CB01F80191838083CE018C5A49
:100A00009F4F9E01205B3F4FF90120813181FC0106
:100A100031832083CE018C5A9F4FFC0180819181CC
:100A20008C01C8010197F1F78C01CE018C5A9F4FC0
:100A3000FC011183008395C3198288E290E028E2CB
:100A400030E0F90120812170FC0120838BE290E0ED
:100A5000FC0180818BE290E0FC0110829E012A5A09
:100A60003F4F80E090E0A0E4B0E4F90180839183FF
:100A7000A283B3838E01065A1F4FCE018A5A9F4F1D
:100A8000FC01608171818281938120E030E04AE73E
:100A900053E40E940A0CDC01CB01F80180839183AE
:100AA000A283B383CE01865A9F4F11E0FC0160817F
:100AB00071818281938120E030E040E85FE30E9411
:100AC000640D88230CF010E0112349F0CE01825A06
:100AD0009F4F21E030E0FC013183208374C0CE01C0
:100AE000865A9F4F11E0FC01608171818281938160
:100AF00020E03FEF4FE757E40E94040D18160CF07A
:100B000010E0112309F44DC0CE018A5A9F4FFC0119
:100B1000608171818281938120E030E040E251E484
:100B20000E940A0CDC01CB018E01025A1F4FBC014E
:100B3000CD010E94360ADC01CB01F801918380834C
:100B400027C0CE01805A9F4F29E130E0FC0131835C
:100B50002083CE01805A9F4FFC01808191818C01BE
:100B6000C8010197F1F78C01CE01805A9F4FFC011B
:100B700011830083CE01825A9F4F9E01225A3F4F1C
:100B8000F9012081318121503040FC0131832083E3
:100B9000CE01825A9F4FFC0180819181009789F696
:100BA000E0C28E01025A1F4FCE01865A9F4FFC01B0
:100BB00060817181828193810E94360ADC01CB01C0
:100BC000F80191838083CE018E599F4F9E01225A56
:100BD0003F4FF90120813181FC0131832083CE0117
:100BE0008E599F4FFC01808191818C01C801019732
:100BF000F1F78C01CE018E599F4FFC0111830083C8
:100C0000B0C281E0898388E290E028E230E0F90117
:100C100020812071FC0120838BE290E0FC01808127
:100C20008BE290E0FC0110829E012C593F4F80E046
:100C300090E0A0E4B0E4F90180839183A283B383C0
:100C40008E0108591F4FCE018C599F4FFC016081C6
:100C500071818281938120E030E04AE753E40E9471
:100C60000A0CDC01CB01F80180839183A283B3835A
:100C7000CE0188599F4F11E0FC0160817181828112
:100C8000938120E030E040E85FE30E94640D882318
:100C90000CF010E0112349F0CE0184599F4F21E060
:100CA00030E0FC013183208374C0CE0188599F4F0E
:100CB00011E0FC01608171818281938120E03FEF2E
:100CC0004FE757E40E94040D18160CF010E01123B2
:100CD00009F44DC0CE018C599F4FFC016081718198
:100CE0008281938120E030E040E251E40E940A0CCE
:100CF000DC01CB018E0104591F4FBC01CD010E94C4
:100D0000360ADC01CB01F8019183808327C0CE0134
:100D100082599F4F29E130E0FC0131832083CE01CD
:100D200082599F4FFC01808191818C01C8010197FC
:100D3000F1F78C01CE0182599F4FFC011183008392
:100D4000CE0184599F4F9E0124593F4FF9012081C4
:100D5000318121503040FC0131832083CE01845900
:100D60009F4FFC0180819181009789F6FAC18E0125
:100D700004591F4FCE0188599F4FFC01608171813A
:100D8000828193810E94360ADC01CB01F8019183B4
:100D90008083CE0180599F4F9E0124593F4FF90116
:100DA00020813181FC0131832083CE0180599F4F06
:100DB000FC01808191818C01C8010197F1F78C01C0
:100DC000CE0180599F4FFC0111830083CAC182E08C
:100DD000898388E290E0FC01808188E290E0FC0158
:100DE00010828BE290E02BE230E0F9012081207844
:100DF000FC0120839E012E583F4F80E090E0A0E44C
:100E0000B0E4F90180839183A283B3838E010A58F1
:100E10001F4FCE018E589F4FFC01608171818281EE
:100E2000938120E030E04AE753E40E940A0CDC01A1
:100E3000CB01F80180839183A283B383CE018A58CA
:100E40009F4F11E0FC01608171818281938120E0DC
:100E500030E040E85FE30E94640D88230CF010E06E
:100E6000112349F0CE0186589F4F21E030E0FC016C
:100E70003183208374C0CE018A589F4F11E0FC015A
:100E8000608171818281938120E03FEF4FE757E4D9
:100E90000E94040D18160CF010E0112309F44DC047
:100EA000CE018E589F4FFC016081718182819381B8
:100EB00020E030E040E251E40E940A0CDC01CB016A
:100EC0008E0106581F4FBC01CD010E94360ADC017D
:100ED000CB01F8019183808327C0CE0184589F4FB6
:100EE00029E130E0FC0131832083CE0184589F4FFB
:100EF000FC01808191818C01C8010197F1F78C017F
:100F0000CE0184589F4FFC0111830083CE01865887
:100F10009F4F9E0126583F4FF9012081318121507A
:100F20003040FC0131832083CE0186589F4FFC0165
:100F300080819181009789F614C18E0106581F4F58
:100F4000CE018A589F4FFC0160817181828193811B
:100F50000E94360ADC01CB01F80191838083CE0127
:100F600082589F4F9E0126583F4FF90120813181C1
:100F7000FC0131832083CE0182589F4FFC01808188
:100F800091818C01C8010197F1F78C01CE01825843
:100F90009F4FFC0111830083E4C0198288E290E036
:100FA000FC01808188E290E0FC0110828BE290E0FD
:100FB000FC0180818BE290E0FC0110829E012058B0
:100FC0003F4F80E090E0A0E4B0E4F901808391839A
:100FD000A283B3838E010C571F4FCE0180589F4FC1
:100FE000FC01608171818281938120E030E04AE7D9
:100FF00053E40E940A0CDC01CB01F8018083918349
:10100000A283B383CE018C579F4F11E0FC01608116
:1010100071818281938120E030E040E85FE30E94AB
:10102000640D88230CF010E0112349F0CE0188579D
:101030009F4F21E030E0FC013183208374C0CE015A
:101040008C579F4F11E0FC016081718182819381F7
:1010500020E03FEF4FE757E40E94040D18160CF014
:1010600010E0112309F44DC0CE0180589F4FFC01C0
:10107000608171818281938120E030E040E251E41F
:101080000E940A0CDC01CB018E0108571F4FBC01E6
:10109000CD010E94360ADC01CB01F80191838083E7
:1010A00027C0CE0186579F4F29E130E0FC013183F4
:1010B0002083CE0186579F4FFC01808191818C0156
:1010C000C8010197F1F78C01CE0186579F4FFC01B3
:1010D00011830083CE0188579F4F9E0128573F4FB1
:1010E000F9012081318121503040FC01318320837E
:1010F000CE0188579F4FFC0180819181009789F62E
:1011000030C08E0108571F4FCE018C579F4FFC01F6
:1011100060817181828193810E94360ADC01CB015A
:10112000F80191838083CE0184579F4F9E012857F9
:101130003F4FF90120813181FC0131832083CE01B1
:1011400084579F4FFC01808191818C01C8010197D8
:10115000F1F78C01CE0184579F4FFC01118300836E
:101160000000CE0181579F4FFC01808191811816AC
:1011700019060CF464CB88E290E0FC01808188E2DF
:1011800090E0FC0110828BE290E0FC0180818BE218
:1011900090E0FC011082C057DF4F0FB6F894DEBF1D
:1011A0000FBECDBFCF91DF911F910F910895DF93B7
:1011B000CF93CDB7DEB78BE290E02BE230E0F901C0
:1011C00020812061FC012083CF91DF910895DF937E
:1011D000CF93CDB7DEB78BE290E02BE230E0F901A0
:1011E00020812F7EFC012083CF91DF910895DF9332
:1011F000CF93CDB7DEB7CF91DF9108950F931F93B3
:10120000DF93CF93CDB7DEB76C970FB6F894DEBF00
:101210000FBECDBF84E290E022E0FC01208385E296
:1012200090E02FEFFC0120838BE290E0FC01108224
:101230008AE290E02AE230E0F90120812E76FC017A
:101240002083789488E690E022E0FC0120838CE6FD
:1012500090E021E0FC0120830E94D70880E090E02C
:10126000AAEFB3E489839A83AB83BC8369817A81D3
:101270008B819C8120E030E04AE753E40E940A0C15
:10128000DC01CB018D839E83AF83B88711E06D8134
:101290007E818F81988520E030E040E85FE30E9406
:1012A000640D88230CF010E0112329F081E090E018
:1012B0009A87898746C011E06D817E818F819885EC
:1012C00020E03FEF4FE757E40E94040D18160CF0A2
:1012D00010E0112361F169817A818B819C8120E08A
:1012E00030E040E251E40E940A0CDC01CB01BC0179
:1012F000CD010E94360ADC01CB019A87898712C092
:1013000089E190E09C878B878B859C858C01C80147
:101310000197F1F78C011C870B8789859A850197C6
:101320009A87898789859A85009751F717C06D81BB
:101330007E818F8198850E94360ADC01CB019A87D5
:10134000898789859A859E878D878D859E858C0165
:10135000F8013197F1F78F011E870D870E94E7088A
:1013600080E090E0AAEFB3E48F87988BA98BBA8BCB
:101370006F85788989899A8920E030E04AE753E4CB
:101380000E940A0CDC01CB018B8B9C8BAD8BBE8B3E
:1013900011E06B897C898D899E8920E030E040E8EE
:1013A0005FE30E94640D88230CF010E0112329F004
:1013B00081E090E0988F8F8B46C011E06B897C892B
:1013C0008D899E8920E03FEF4FE757E40E94040D8E
:1013D00018160CF010E0112361F16F857889898966
:1013E0009A8920E030E040E251E40E940A0CDC01DE
:1013F000CB01BC01CD010E94360ADC01CB01988FE4
:101400008F8B12C089E190E09A8F898F898D9A8D98
:101410008C01C8010197F1F78C011A8F098F8F8910
:10142000988D0197988F8F8B8F89988D009751F7A2
:1014300017C06B897C898D899E890E94360ADC01E0
:10144000CB01988F8F8B8F89988D9C8F8B8F8B8DF5
:101450009C8D8C01F8013197F1F78F011C8F0B8F58
:1014600080E068EC70E00E949000F6CEEF92FF9270
:101470000F931F937B018C0120E030E040E05FE49C
:101480000E94340D87FD11C0C801B70120E030E093
:1014900040E05FE40E94D90B0E94940D9B01AC01D7
:1014A000205030404040504806C0C801B7010E945B
:1014B000940D9B01AC01B901CA011F910F91FF90DE
:1014C000EF900895A0E0B0E0E8E6FAE00C947A0F1F
:1014D000FC01EA018081823008F438C1DB019C9173
:1014E000923008F430C1843059F4943009F02EC1A0
:1014F000918111968C911197981709F021C126C1FD
:10150000943009F420C19230B1F4823009F01EC148
:10151000CA01AF0128E0DA010D90AD01DC010D92A6
:10152000CD012150C1F7DB0111968C91119791816A
:10153000892389830AC1823009F405C1C280D3801E
:10154000DB0112966D907C90139724813581468142
:1015500057811496ED90FD900D911C911797C6013F
:10156000861997095C0197FF04C0AA24BB24A81A16
:10157000B90AB0E2AB16B1040CF061C01816190636
:101580006CF5370148010A2C04C09694879477942F
:1015900067940A94D2F781E090E0A0E0B0E00A2CD2
:1015A00004C0880F991FAA1FBB1F0A94D2F7019786
:1015B000A109B1098E219F21A023B123EE24FF248C
:1015C0008701E3940097A105B10519F4EE24FF24E7
:1015D0008701E628F728082919293CC00097D1F18E
:1015E000CA0CDB1C39014A010A2C04C0969487946A
:1015F000779467940A94D2F781E090E0A0E0B0E09D
:101600000A2C04C0880F991FAA1FBB1F0A94D2F787
:101610000197A109B10982239323A423B52321E0D3
:1016200030E040E050E00097A105B10519F420E05A
:1016300030E0A90126293729482959290BC06C1403
:101640007D0424F4EE24FF24870104C0630120E01C
:1016500030E0A9018181FB019181891709F445C01E
:10166000882349F0D801C701821B930BA40BB50B4B
:101670009C01AD0104C02E193F09400B510B57FDD1
:1016800004C01982DB82CA820BC081E08983DB82BD
:10169000CA8250954095309521953F4F4F4F5F4FEF
:1016A0002C833D834E835F830DC0880F991FAA1F33
:1016B000BB1F8C839D83AE83BF838A819B810197EF
:1016C0009B838A838C819D81AE81BF819C01AD010A
:1016D00021503040404050402F3FEFEF3E07EFEFAA
:1016E0004E07EFE35E0708F30BC08983DB82CA82F3
:1016F0002E0D3F1D401F511F2C833D834E835F8362
:1017000083E088832C813D814E815F8157FF1DC01E
:10171000DA01C90181709070A070B070569547953C
:1017200037952795822B932BA42BB52B8C839D83E8
:10173000AE83BF838A819B8101969B838A8305C088
:10174000E0E0F1E003C0FB0101C0FE01CF01CDB735
:10175000DEB7EEE00C94960FA0E2B0E0E2EBFBE027
:101760000C94820F69837A838B839C832D833E83C1
:101770004F83588789E0E82EF12CEC0EFD1ECE0138
:101780000196B7010E94B40E8E010F5E1F4FCE016D
:101790000596B8010E94B40EC701B801AE01475EBC
:1017A0005F4F0E94620A0E94E60DA096E6E00C944C
:1017B0009E0FA0E2B0E0EFEDFBE00C94820F698396
:1017C0007A838B839C832D833E834F8358878E013E
:1017D000075F1F4FCE010196B8010E94B40E91E140
:1017E000E92EF12CEC0EFD1ECE010596B7010E94EC
:1017F000B40E8A8991E089278A8BC801B701AE01AE
:10180000475E5F4F0E94620A0E94E60DA096E6E0E6
:101810000C949E0FA0E2B0E0E0E1FCE00C94760FA7
:1018200069837A838B839C832D833E834F83588780
:10183000CE010196BE01675F7F4F0E94B40ECE01BC
:101840000596BE016F5E7F4F0E94B40E998592305F
:1018500078F089898230C0F0943019F4823041F4F4
:10186000CBC0843019F4923079F4C6C0923051F470
:1018700081E02A859A89291709F480E08A87CE01B8
:101880000996BCC0823051F481E02A859A892917D3
:1018900009F480E08A8BCE014196B0C06D847E84CD
:1018A0008F849888ED88FE880F89188DE0E2F0E03B
:1018B00080E090E0DC01AA24BB24650120E030E058
:1018C000A901B3016170707061157105D1F02E0D21
:1018D0003F1D401F511F15012601280E391E4A1EAB
:1018E0005B1E81E090E0A0E0B0E02E153F054007D0
:1018F000510718F080E090E0DC01820D931DA41DDB
:10190000B51DAA0CBB1CCC1CDD1C17FF09C061E077
:10191000262E312C412C512CA228B328C428D5289E
:10192000319749F0EE0CFF1C001F111F969487940D
:1019300077946794C6CF6B897C89EB85FC856E0FA5
:101940007F1F6E5F7F4F7C8F6B8F61E0EA857A89A6
:10195000E71709F460E06A8F6B8D7C8D10C0FC0185
:10196000E170F070309729F0569547953795279597
:101970005068B695A795979587956F5F7F4FB7FD90
:10198000EECF0CC0880F991FAA1FBB1F57FD8160A7
:10199000220F331F441F551F615070408030E0E01C
:1019A0009E07E0E0AE07E0E4BE0760F36B8F7C8F3C
:1019B0006FE7E62EF12C012D112DE822F9220A23E2
:1019C0001B2360E4E616F1040105110561F487FDAF
:1019D0000AC0211531054105510529F0805C9F4F52
:1019E000AF4FBF4F80788D8F9E8FAF8FB8A383E0AE
:1019F000898FCE01499602C080E091E00E94E60DF9
:101A0000A096E2E10C94920FA8E1B0E0EAE0FDE0DC
:101A10000C94820F69837A838B839C832D833E830E
:101A20004F8358878E01075F1F4FCE010196B80183
:101A30000E94B40E81E1E82EF12CEC0EFD1ECE01C9
:101A40000596B7010E94B40E8985823040F08989DD
:101A5000823028F0C801B7010E941D0F01C08FEF2E
:101A60006896E6E00C949E0FA8E1B0E0EAE3FDE0A2
:101A70000C94820F69837A838B839C832D833E83AE
:101A80004F8358878E01075F1F4FCE010196B80123
:101A90000E94B40E81E1E82EF12CEC0EFD1ECE0169
:101AA0000596B7010E94B40E8985823040F089897D
:101AB000823028F0C801B7010E941D0F01C08FEFCE
:101AC0006896E6E00C949E0FA8E1B0E0EAE6FDE03F
:101AD0000C94820F69837A838B839C832D833E834E
:101AE0004F8358878E01075F1F4FCE010196B801C3
:101AF0000E94B40E81E1E82EF12CEC0EFD1ECE0109
:101B00000596B7010E94B40E8985823040F089891C
:101B1000823028F0C801B7010E941D0F01C081E08A
:101B20006896E6E00C949E0FACE0B0E0EAE9FDE0D8
:101B30000C94860F69837A838B839C83CE010196F4
:101B4000BE016B5F7F4F0E94B40E8D81823081F1A8
:101B5000823070F1843021F48E81882369F10AC0CB
:101B60002F81388537FD24C06E812F3131053CF03F
:101B7000662311F120E030E040E050E821C08EE122
:101B800090E0821B930B29853A854B855C8504C0C8
:101B900056954795379527958A95D2F7662381F014
:101BA00050954095309521953F4F4F4F5F4F08C05E
:101BB00020E030E0A90104C02FEF3FEF4FEF5FE7D7
:101BC000B901CA012C96E2E00C94A20FEF92FF92A9
:101BD0000F931F93CF93DF93FC01248135814681BE
:101BE000578161818081823020F44061EFEFF0E025
:101BF000A3C0843009F49BC0823009F492C021153F
:101C000031054105510509F48FC00280F381E02DB3
:101C10008FEFE238F8070CF05AC0C2E8DFEFCE1BB6
:101C2000DF0BCA31D1056CF579018A010C2E04C095
:101C300016950795F794E7940A94D2F781E090E01F
:101C4000A0E0B0E00C2E04C0880F991FAA1FBB1F94
:101C50000A94D2F70197A109B10982239323A423FF
:101C6000B52321E030E040E050E00097A105B10548
:101C700019F420E030E0A9012E293F29402B512BF7
:101C800003C020E030E0A901DA01C9018F7790702C
:101C9000A070B07080349105A105B10539F427FF1B
:101CA00009C0205C3F4F4F4F5F4F04C0215C3F4F46
:101CB0004F4F5F4FE1E0F0E0203080E0380780E0F8
:101CC000480780E4580728F5E0E0F0E022C0E0385B
:101CD000F1056CF5E158FF4FDA01C9018F7790707B
:101CE000A070B07080349105A105B10539F427FFCB
:101CF00009C0205C3F4F4F4F5F4F04C0215C3F4FF6
:101D00004F4F5F4F57FF05C056954795379527951D
:101D1000319687E056954795379527958A95D1F75F
:101D20000BC0E0E0F0E005C0E0E0F0E005C0EFEF60
:101D3000F0E020E030E0A9018E2F87958827879575
:101D4000942F9F77679566276795E695E22EA92FD2
:101D5000A82BFE2FF62B622F732F8A2F9F2FCDB724
:101D6000DEB7E6E00C949E0FDC01FB012C9111968E
:101D70003C91119712968C911297482F4F7750E013
:101D8000982F991F9927991F13966C911397862F57
:101D9000880F892B90E0661F6627661F6183009776
:101DA00039F5211531054105510511F482E029C0AD
:101DB00082E89FEF9383828367E0220F331F441FE3
:101DC000551F6A95D1F783E0808309C0220F331F26
:101DD000441F551F82819381019793838283203012
:101DE00080E0380780E0480780E4580778F320C097
:101DF0008F3F910579F4211531054105510519F4FD
:101E000084E08083089544FF03C081E0808310C094
:101E100010820EC08F5790409383828383E080832B
:101E200087E0220F331F441F551F8A95D1F7506456
:101E300024833583468357830895FC01DB01908119
:101E4000923008F449C08C91823008F445C0943037
:101E500051F461818430B1F511962C91119730E0E5
:101E6000261B310941C0843021F0923041F4823088
:101E7000B1F111968C9111978823A1F12DC0618148
:101E8000823001F111968C9111976817D9F4228153
:101E9000338112968D919C9113978217930794F03A
:101EA00028173907BCF02481358146815781149663
:101EB0008D919D910D90BC91A02D82179307A40741
:101EC000B50718F4662341F00DC0281739074A07F3
:101ED0005B0728F4662331F021E030E005C020E004
:101EE00030E002C02FEF3FEFC90108952F923F92DB
:101EF0004F925F926F927F928F929F92AF92BF921A
:101F0000CF92DF92EF92FF920F931F93CF93DF93C5
:101F1000CDB7DEB7CA1BDB0B0FB6F894DEBF0FBE22
:101F2000CDBF09942A88398848885F846E847D846F
:101F30008C849B84AA84B984C884DF80EE80FD8071
:101F40000C811B81AA81B981CE0FD11D0FB6F894E7
:0E1F5000DEBF0FBECDBFED010895F894FFCFA8
:081F5E0000000000000000007B
:00000001FF
