:100000000C943E000C945B000C945B000C945B0021
:100010000C945B000C945D000C945B000C945B00F2
:100020000C945B000C945B000C945B000C945B00E4
:100030000C945B000C945B000C945B000C945B00D4
:100040000C945B000C945B000C945B000C945B00C4
:100050000C945B000C945B000C945B000C945B00B4
:100060000C945B000C945B000C945B000C945B00A4
:100070000C945B000C945B000C945B0011241FBE7D
:10008000CFEFD0E1DEBFCDBF11E0A0E0B1E0EEE9FF
:10009000F6E002C005900D92AC31B107D9F711E03E
:1000A000ACE1B1E001C01D92AE31B107E1F70E94B1
:1000B00079000C944D030C9400001F920F920FB620
:1000C0000F9211248F939F9395B182E0892785B970
:1000D0009F918F910F900FBE0F901F901895880FD2
:1000E000816083BF889508955C9A08955C9808950F
:1000F000089517B8479A0E949A0182E084B98FEF59
:1001000085B91BB88AB18E7E8AB978940E945A024A
:1001100088E893E10E94650288B118B880E090E019
:1001200068EC70E042E050E00E947602F7CF109851
:10013000119AE9EFF0E03197F1F700C00000129A50
:10014000E9EFF0E03197F1F700C0000020B122950F
:100150002F7030E022953295307F3227207F322772
:100160001298E9EFF0E03197F1F700C00000129A21
:10017000E9EFF0E03197F1F700C0000040B11298CC
:10018000E9EFF0E03197F1F700C0000027FDCFCF95
:10019000009719F0109A119803C082B18C7F82B930
:1001A00089EF90E00197F1F700C00000129A82B148
:1001B0008F7082B982B1962F907F892B82B981B1DD
:1001C000806F81B9E9EFF0E03197F1F700C00000EE
:1001D000129889EF90E00197F1F700C00000129AA1
:1001E00082B18F7082B982B162957295707F7627E5
:1001F000607F7627682B62B9E9EFF0E03197F1F77D
:1002000000C00000129889EF90E00197F1F700C05C
:10021000000082B18F7082B981B18F7081B9089569
:10022000CF93DF93EC01BC01606880E090E00E9416
:100230009700D0931D01C0931C01DF91CF910895C9
:1002400080E090E061E070E00E94970008959B01DB
:10025000009719F066E070E002C064E070E081E0B1
:1002600090E02115310511F480E090E0682B792BA6
:1002700080E090E00E9497000895009719F0ECE06C
:10028000F0E002C0E8E0F0E06115710519F022E04D
:1002900030E002C020E030E081E090E041155105FF
:1002A00011F480E090E0BF01682B792B622B732B57
:1002B00080E090E00E9497000895682F81E090E030
:1002C00070E00E94970080911C0190911D010196A1
:1002D00090931D0180931C010895CF93DF93EC014F
:1002E0008881882321F121968A30E1F480911C01D4
:1002F00090911D01843191052CF480E490E00E94DE
:10030000100112C0883291052CF484E590E00E941F
:1003100010010AC0843591053CF484E190E00E940C
:10032000100102C00E945D0189918823E9F6DF91E6
:10033000CF91089582B1887082B981B18F7081B9EF
:1003400081B1876081B985EA9EE00197F1F700C02D
:10035000000082B18C7082B982B1806382B989EF6A
:1003600090E00197F1F700C00000129A81B1806F10
:1003700081B989EF90E00197F1F700C00000129871
:1003800089EF90E00197F1F700C0000081B18F7014
:1003900081B981EE94E00197F1F700C0000082B1CD
:1003A0008C7082B982B1806382B989EF90E0019745
:1003B000F1F700C00000129A81B1816F81B989EF15
:1003C00090E00197F1F700C00000129889EF90E0EB
:1003D0000197F1F700C0000081B18F7081B989EFFA
:1003E00090E00197F1F700C0000082B18C7082B9F3
:1003F00082B1806382B989EF90E00197F1F700C084
:100400000000129A81B1806F81B989EF90E0019765
:10041000F1F700C00000129889EF90E00197F1F722
:1004200000C0000081B18F7081B982B18C7082B937
:10043000159A89EF90E00197F1F700C00000129A39
:1004400081B1806F81B989EF90E00197F1F700C029
:100450000000129889EF90E00197F1F700C00000CA
:1004600081B18F7081B980E090E068E270E00E9415
:10047000970080E090E060E070E040E050E00E9493
:100480003D010E94200181E090E060E070E00E9468
:10049000270181E090E061E070E041E050E00E94DF
:1004A0003D0180E090E00E94100180E091E00E9418
:1004B0006D01089585B7806885BF85BF88B1807C50
:1004C00088B987B18F6387B90895181619066CF437
:1004D00020E030E0E9EFF0E03197F1F700C00000F4
:1004E0002F5F3F4F28173907ACF308952F923F92A3
:1004F0004F925F926F927F928F929F92AF92BF9234
:10050000CF92DF92EF92FF920F931F93CF93DF93DF
:10051000082F7B016A0188B1826288B91616170616
:100520000CF0A5C0C0E0D0E01AE0BB246894B2F89B
:100530005524689451F89924689493F80F2EF6E0A6
:100540004F2EF02DAA24A3940F2EF3E03F2EF02D72
:100550000F2EF5E02F2EF02D8824689484F80F2EAE
:10056000F7E07F2EF02D66241330B9F1143028F413
:100570001130D9F0123028F50CC0153009F445C0FF
:100580001530B8F1163009F44CC0173009F061C0CD
:1005900054C0002311F01A2D01C0172D88B18B25EE
:1005A00088B9C6010E9465025DC0002311F0152DB7
:1005B00001C0162D88B1882588B9C6010E94650240
:1005C00051C0002311F0132D01C01A2D88B18925C7
:1005D00088B9C6010E94650245C0002311F01B2D99
:1005E00001C0152D88B18B2588B9C6010E9465020E
:1005F00039C0002311F0122D01C0132D88B18A25B6
:1006000088B9C6010E9465022DC0002311F0142D87
:1006100001C01B2D88B1892588B9C6010E946502D9
:1006200021C0002311F0172D01C0122D88B188259B
:1006300088B9C6010E94650215C0002311F0162D6D
:1006400001C0142D88B18A2588B9C6010E946502AF
:1006500009C0002311F0162D01C0172D88B1827E2C
:1006600088B9449A2196CE15DF050CF47DCF88B168
:10067000807C88B9DF91CF911F910F91FF90EF900F
:10068000DF90CF90BF90AF909F908F907F906F90B2
:0E0690005F904F903F902F900895F894FFCF09
:10069E004C696E6520310A4C696E6520320A4C69D0
:0C06AE006E6520330A4C696E6520340034
:00000001FF
