:100000000C943E000C9448000C9448000C9448005A
:100010000C9448000C944A000C9448000C9448003E
:100020000C9448000C9448000C9448000C94480030
:100030000C9448000C9448000C9448000C94480020
:100040000C9448000C9448000C9448000C94480010
:100050000C9448000C9448000C9448000C94480000
:100060000C9448000C9448000C9448000C944800F0
:100070000C9448000C9448000C94480011241FBEB6
:10008000CFEFD0E1DEBFCDBF0E9466000C94DA0254
:100090000C9400001F920F920FB60F9211248F93B1
:1000A0009F9395B182E0892785B99F918F910F9099
:1000B0000FBE0F901F901895880F816083BF8895A1
:1000C00008955C9A08955C98089508950E9425010A
:1000D00082E084B98FEF85B91BB88AB18E7E8AB968
:1000E00078940E94E70180E090E068EC70E042E0E4
:1000F00050E00E940302F7CF009721F082B18360A5
:1001000082B902C01098119A89EF90E00197F1F737
:1001100000C00000129AE9EFF0E03197F1F700C05B
:10012000000080B182958F7090E082959295907FCB
:100130009827807F98271298E9EFF0E03197F1F740
:1001400000C00000129AE9EFF0E03197F1F700C02B
:10015000000020B11298E9EFF0E03197F1F700C00C
:10016000000022952F7030E0282B392B822F932FFF
:10017000089580E090E00E947C0008950E94B900FC
:1001800087FDFCCF08950F931F93CF93DF938C01CE
:10019000EB010E94BE000115110519F0109A11988B
:1001A00003C082B18C7F82B989EF90E00197F1F7AB
:1001B00000C00000129A82B18F7082B982B19E0194
:1001C000207F822B82B981B1806F81B989EF90E065
:1001D0000197F1F700C00000129889EF90E00197B5
:1001E000F1F700C00000129A82B18F7082B982B11B
:1001F000C295D295D07FDC27C07FDC278C2B82B9BB
:1002000089EF90E00197F1F700C00000129889EFA4
:1002100090E00197F1F700C0000082B18F7082B9C1
:1002200081B18F7081B9DF91CF911F910F910895A6
:10023000BC01606880E090E00E94C3000895BC01AA
:1002400081E090E00E94C300089582B1887082B975
:1002500081B18F7081B981B1876081B985EA9EE0F3
:100260000197F1F700C0000082B18C7082B982B1B1
:10027000806382B989EF90E00197F1F700C0000038
:10028000129A81B1806F81B989EF90E00197F1F7FF
:1002900000C00000129889EF90E00197F1F700C0CC
:1002A000000081B18F7081B981EE94E00197F1F780
:1002B00000C0000082B18C7082B982B1806382B9C3
:1002C00089EF90E00197F1F700C00000129A81B128
:1002D000816F81B989EF90E00197F1F700C00000CC
:1002E000129889EF90E00197F1F700C0000081B10A
:1002F0008F7081B989EF90E00197F1F700C000009D
:1003000082B18C7082B982B1806382B989EF90E04A
:100310000197F1F700C00000129A81B1806F81B996
:1003200089EF90E00197F1F700C00000129889EF83
:1003300090E00197F1F700C0000081B18F7081B9A2
:100340000E94BE0082B18C7082B9159A89EF90E04C
:100350000197F1F700C00000129A81B1806F81B956
:1003600089EF90E00197F1F700C00000129889EF43
:1003700090E00197F1F700C0000081B18F7081B962
:1003800080E090E068E270E00E94C30080E090E0CE
:1003900068E070E00E94C30080E090E061E070E0FF
:1003A0000E94C30080E090E064E070E00E94C3001F
:1003B00080E090E06FE070E00E94C30080E090E099
:1003C0000E94180188E490E00E941F01089585B7FB
:1003D000806885BF85BF88B1807C88B987B18F630D
:1003E00087B90895181619066CF420E030E0E9EF9B
:1003F000F0E03197F1F700C000002F5F3F4F281762
:100400003907ACF308952F923F924F925F926F920B
:100410007F928F929F92AF92BF92CF92DF92EF9294
:10042000FF920F931F93CF93DF93082F7B016A01F5
:1004300088B1826288B9161617060CF0A5C0C0E014
:10044000D0E01AE0BB246894B2F85524689451F8BF
:100450009924689493F80F2EF6E04F2EF02DAA24DD
:10046000A3940F2EF3E03F2EF02D0F2EF5E02F2E4C
:10047000F02D8824689484F80F2EF7E07F2EF02D5D
:1004800066241330B9F1143028F41130D9F0123049
:1004900028F50CC0153009F445C01530B8F11630F8
:1004A00009F44CC0173009F061C054C0002311F0AA
:1004B0001A2D01C0172D88B18B2588B9C6010E945D
:1004C000F2015DC0002311F0152D01C0162D88B179
:1004D000882588B9C6010E94F20151C0002311F09D
:1004E000132D01C01A2D88B1892588B9C6010E9433
:1004F000F20145C0002311F01B2D01C0152D88B15C
:100500008B2588B9C6010E94F20139C0002311F081
:10051000122D01C0132D88B18A2588B9C6010E9409
:10052000F2012DC0002311F0142D01C01B2D88B144
:10053000892588B9C6010E94F20121C0002311F06B
:10054000172D01C0122D88B1882588B9C6010E94D7
:10055000F20115C0002311F0162D01C0142D88B131
:100560008A2588B9C6010E94F20109C0002311F052
:10057000162D01C0172D88B1827E88B9449A219624
:10058000CE15DF050CF47DCF88B1807C88B9DF9172
:10059000CF911F910F91FF90EF90DF90CF90BF9080
:1005A000AF909F908F907F906F905F904F903F9013
:0805B0002F900895F894FFCF8D
:00000001FF
