:100000000C943E000C9448000C9448000C9448005A
:100010000C9448000C944A000C9448000C9448003E
:100020000C9448000C9448000C9448000C94480030
:100030000C9448000C9448000C9448000C94480020
:100040000C9448000C9448000C9448000C94480010
:100050000C9448000C9448000C9448000C94480000
:100060000C9448000C9448000C9448000C944800F0
:100070000C9448000C9448000C94480011241FBEB6
:10008000CFEFD0E1DEBFCDBF0E9466000C94F90235
:100090000C9400001F920F920FB60F9211248F93B1
:1000A0009F9395B182E0892785B99F918F910F9099
:1000B0000FBE0F901F901895880F816083BF8895A1
:1000C00008955C9A08955C98089508950E943901F6
:1000D00082E084B98FEF85B91BB88AB18E7E8AB968
:1000E00078940E94060280E090E068EC70E042E0C4
:1000F00050E00E942202F7CF1098119AE9EFF0E049
:100100003197F1F700C00000129AE9EFF0E0319763
:10011000F1F700C0000020B122952F7030E0229549
:100120003295307F3227207F32271298E9EFF0E0B6
:100130003197F1F700C00000129AE9EFF0E0319733
:10014000F1F700C0000040B11298E9EFF0E03197FC
:10015000F1F700C0000027FDCFCF009719F0109AEB
:10016000119803C082B18C7F82B989EF90E001972A
:10017000F1F700C00000129A82B18F7082B982B18B
:10018000962F907F892B82B981B1806F81B9E9EF79
:10019000F0E03197F1F700C00000129889EF90E08D
:1001A0000197F1F700C00000129A82B18F7082B9F6
:1001B00082B162957295707F7627607F7627682B73
:1001C00062B9E9EFF0E03197F1F700C00000129852
:1001D00089EF90E00197F1F700C0000082B18F70C5
:1001E00082B981B18F7081B9089580E090E061E0BB
:1001F00070E00E947C0008959B01009719F066E072
:1002000070E002C064E070E081E090E0211531050B
:1002100011F480E090E0682B792B80E090E00E9460
:100220007C000895009719F0ECE0F0E002C0E8E0EF
:10023000F0E06115710519F022E030E002C020E025
:1002400030E081E090E04115510511F480E090E04C
:10025000BF01682B792B622B732B80E090E00E940A
:100260007C000895682F81E090E070E00E947C009F
:10027000089582B1887082B981B18F7081B981B1DE
:10028000876081B985EA9EE00197F1F700C0000020
:1002900082B18C7082B982B1806382B989EF90E0BB
:1002A0000197F1F700C00000129A81B1806F81B907
:1002B00089EF90E00197F1F700C00000129889EFF4
:1002C00090E00197F1F700C0000081B18F7081B913
:1002D00081EE94E00197F1F700C0000082B18C70CC
:1002E00082B982B1806382B989EF90E00197F1F71A
:1002F00000C00000129A81B1816F81B989EF90E04E
:100300000197F1F700C00000129889EF90E0019783
:10031000F1F700C0000081B18F7081B989EF90E0E2
:100320000197F1F700C0000082B18C7082B982B1F0
:10033000806382B989EF90E00197F1F700C0000077
:10034000129A81B1806F81B989EF90E00197F1F73E
:1003500000C00000129889EF90E00197F1F700C00B
:10036000000081B18F7081B982B18C7082B9159A09
:1003700089EF90E00197F1F700C00000129A81B177
:10038000806F81B989EF90E00197F1F700C000001C
:10039000129889EF90E00197F1F700C0000081B159
:1003A0008F7081B980E090E068E270E00E947C008C
:1003B00080E090E060E070E040E050E00E941201D8
:1003C0000E94F50081E090E060E070E00E94FC0097
:1003D00081E090E061E070E041E050E00E941201B5
:1003E00080E090E060E870E00E947C0088E40E9479
:1003F000320185E60E9432018CE60E9432018CE6D1
:100400000E9432018FE60E943201089585B780680C
:1004100085BF85BF88B1807C88B987B18F6387B974
:100420000895181619066CF420E030E0E9EFF0E0CA
:100430003197F1F700C000002F5F3F4F28173907B1
:10044000ACF308952F923F924F925F926F927F92FA
:100450008F929F92AF92BF92CF92DF92EF92FF92D4
:100460000F931F93CF93DF93082F7B016A0188B10D
:10047000826288B9161617060CF0A5C0C0E0D0E05D
:100480001AE0BB246894B2F85524689451F8992472
:10049000689493F80F2EF6E04F2EF02DAA24A39423
:1004A0000F2EF3E03F2EF02D0F2EF5E02F2EF02D26
:1004B0008824689484F80F2EF7E07F2EF02D6624B0
:1004C0001330B9F1143028F41130D9F0123028F576
:1004D0000CC0153009F445C01530B8F1163009F4D8
:1004E0004CC0173009F061C054C0002311F01A2D20
:1004F00001C0172D88B18B2588B9C6010E94110251
:100500005DC0002311F0152D01C0162D88B188257E
:1005100088B9C6010E94110251C0002311F0132DA9
:1005200001C01A2D88B1892588B9C6010E9411021F
:1005300045C0002311F01B2D01C0152D88B18B255E
:1005400088B9C6010E94110239C0002311F0122D92
:1005500001C0132D88B18A2588B9C6010E941102F5
:100560002DC0002311F0142D01C01B2D88B1892549
:1005700088B9C6010E94110221C0002311F0172D75
:1005800001C0122D88B1882588B9C6010E941102C8
:1005900015C0002311F0162D01C0142D88B18A2535
:1005A00088B9C6010E94110209C0002311F0162D5E
:1005B00001C0172D88B1827E88B9449A2196CE1544
:1005C000DF050CF47DCF88B1807C88B9DF91CF91B5
:1005D0001F910F91FF90EF90DF90CF90BF90AF9061
:1005E0009F908F907F906F905F904F903F902F9053
:0605F0000895F894FFCF0E
:00000001FF
