:100000000C943E000C9448000C9448000C9448005A
:100010000C9448000C944A000C9448000C9448003E
:100020000C9448000C9448000C9448000C94480030
:100030000C9448000C9448000C9448000C94480020
:100040000C9448000C9448000C9448000C94480010
:100050000C9448000C9448000C9448000C94480000
:100060000C9448000C9448000C9448000C944800F0
:100070000C9448000C9448000C94480011241FBEB6
:10008000CFEFD0E1DEBFCDBF0E9466000C946402CA
:100090000C9400001F920F920FB60F9211248F93B1
:1000A0009F9395B182E0892785B99F918F910F9099
:1000B0000FBE0F901F901895880F816083BF8895A1
:1000C00008955C9A08955C98089508950E94D5005B
:1000D00082E084B98FEF85B91BB88AB18E7E8AB968
:1000E00078940E94710180E090E068EC70E042E05A
:1000F00050E00E948D01F7CF119A1099FECF08951C
:10010000EF92FF921F93CF93DF937C01EB010E944C
:100110007C0082B18C7082B982B111E0E114F104EB
:1001200009F410E0812B9E01207F822B82B981E0AF
:1001300090E00E947C01129A81B1816F81B981E0C7
:1001400090E00E947C01129881E090E00E947C0186
:1001500081B18E7081B90E947C0082B18C7082B9AD
:1001600082B1182BCE0182959295907F9827807F3F
:100170009827812B82B981E090E00E947C01129A3D
:1001800081B1816F81B981E090E00E947C01129879
:1001900081E090E00E947C0181B18E7081B9DF9195
:1001A000CF911F91FF90EF90089582B1887082B92E
:1001B00081B1866081B981B18E7081B98FE090E0A4
:1001C0000E947C0182B18C7082B982B1806382B955
:1001D00081E090E00E947C01129A81B1816F81B927
:1001E00081E090E00E947C01129881E090E00E9402
:1001F0007C0181B18E7081B985E090E00E947C0124
:1002000082B18C7082B982B1806382B981E090E062
:100210000E947C01129A81B1816F81B981E090E0E6
:100220000E947C01129881E090E00E947C0181B1E3
:100230008E7081B981E090E00E947C0182B18C7067
:1002400082B982B1806382B981E090E00E947C0132
:10025000129A81B1816F81B981E090E00E947C01A6
:10026000129881E090E00E947C0181B18E7081B98A
:100270000E947C0082B18C7082B9159A81E090E076
:100280000E947C01129A81B1816F81B981E090E076
:100290000E947C01129881E090E00E947C0181B173
:1002A0008E7081B980E090E068E270E00E9480008A
:1002B00080E090E068E070E00E94800080E090E0E4
:1002C00061E070E00E94800080E090E064E070E017
:1002D0000E94800080E090E06FE070E00E9480006B
:1002E000089585B7806885BF85BF88B1807C88B94F
:1002F00087B18F6387B90895181619066CF420E04A
:1003000030E0E9EFF0E03197F1F700C000002F5F37
:100310003F4F28173907ACF308952F923F924F9221
:100320005F926F927F928F929F92AF92BF92CF9285
:10033000DF92EF92FF920F931F93CF93DF93082FDB
:100340007B016A0188B1826288B9161617060CF023
:10035000A5C0C0E0D0E01AE0BB246894B2F85524F0
:10036000689451F89924689493F80F2EF6E04F2E74
:10037000F02DAA24A3940F2EF3E03F2EF02D0F2E84
:10038000F5E02F2EF02D8824689484F80F2EF7E0E6
:100390007F2EF02D66241330B9F1143028F411307B
:1003A000D9F0123028F50CC0153009F445C01530CD
:1003B000B8F1163009F44CC0173009F061C054C0D0
:1003C000002311F01A2D01C0172D88B18B2588B993
:1003D000C6010E947C015DC0002311F0152D01C0F3
:1003E000162D88B1882588B9C6010E947C0151C0AC
:1003F000002311F0132D01C01A2D88B1892588B969
:10040000C6010E947C0145C0002311F01B2D01C0D4
:10041000152D88B18B2588B9C6010E947C0139C091
:10042000002311F0122D01C0132D88B18A2588B93F
:10043000C6010E947C012DC0002311F0142D01C0C3
:100440001B2D88B1892588B9C6010E947C0121C075
:10045000002311F0172D01C0122D88B1882588B90D
:10046000C6010E947C0115C0002311F0162D01C0A9
:10047000142D88B18A2588B9C6010E947C0109C063
:10048000002311F0162D01C0172D88B1827E88B986
:10049000449A2196CE15DF050CF47DCF88B1807C7F
:1004A00088B9DF91CF911F910F91FF90EF90DF906E
:1004B000CF90BF90AF909F908F907F906F905F9004
:0C04C0004F903F902F900895F894FFCFCC
:00000001FF
