:100000000C943E000C9448000C9448000C9448005A
:100010000C9448000C944A000C9448000C9448003E
:100020000C9448000C9448000C9448000C94480030
:100030000C9448000C9448000C9448000C94480020
:100040000C9448000C9448000C9448000C94480010
:100050000C9448000C9448000C9448000C94480000
:100060000C9448000C9448000C9448000C944800F0
:100070000C9448000C9448000C94480011241FBEB6
:10008000CFEFD0E1DEBFCDBF0E941A010C942F014B
:100090000C9400001F920F920FB60F9211248F93B1
:1000A0009F9385B192E0892785B99F918F910F9099
:1000B0000FBE0F901F901895880F816083BF8895A1
:1000C000089598B1947C98B95F9897B19B6397B95C
:1000D000579A98B1926398B9882341F480E090E0F0
:1000E00020E0E8E050E149E031E196C080E090E0B6
:1000F00020E0E9E051E148E030E145C02130A1F0E5
:10010000213028F02230E9F0233081F528C028B1D1
:10011000252728B92BB12BB9A3EDB0E31197F1F73F
:1001200000C0000021E02EC028B12E2728B92BB135
:100130002BB9A3EDB0E31197F1F700C0000022E066
:1001400021C028B1242728B92BB120582BB9A3ED01
:10015000B0E31197F1F700C0000023E013C028B10D
:10016000232728B92BB120582BB905C028B118B8BE
:10017000449A2BB11BB8A3EDB0E31197F1F700C07F
:10018000000020E00196861797070CF4B7CF48C00F
:100190002130C9F0213028F1223041F0233079F5A7
:1001A00028B1232728B92BB12BB92EC028B1242779
:1001B00028B92BB12BB9A3EDB0E31197F1F700C02B
:1001C000000023E028C028B12E2728B92BB12058E1
:1001D0002BB9A3EDB0E31197F1F700C0000022E0C6
:1001E0001AC028B1252728B92BB120582BB9A3ED67
:1001F000B0E31197F1F700C0000021E00CC028B176
:1002000018B8449A2BB11BB8A3EDB0E31197F1F7DE
:1002100000C0000020E00196861797070CF4B8CFC5
:1002200088B118B88BB11BB808955C9A08955C9892
:100230000895089592E094B98FEF85B91BB88AB1FB
:100240008E768AB978949093680081E080936C00F0
:1002500080E068EC70E00E946100FACF0895F894A5
:02026000FFCFCE
:00000001FF
