:100000000C943E000C945B000C945B000C945B0021
:100010000C945B000C94E3000C945B000C945B006C
:100020000C945B000C945B000C945B000C945B00E4
:100030000C945B000C945B000C945B000C945B00D4
:100040000C945B000C945B000C945B000C945B00C4
:100050000C94B2000C945B000C948D000C945B002B
:100060000C945B000C945B000C945B000C945B00A4
:100070000C945B000C945B000C945B0011241FBE7D
:10008000CFEFD0E1DEBFCDBF11E0A0E0B1E0E4ED05
:10009000F7E002C005900D92A432B107D9F711E044
:1000A000A4E2B1E001C01D92A23FB107E1F70E94B6
:1000B000FF000C94E8030C9400001092C50081E846
:1000C0008093C400E1ECF0E0808188618083A2EC41
:1000D000B0E08C9186608C938081806C8083789472
:1000E000089520910001222359F01092000190936D
:1000F0008D0180938C01FC0180818093C60008955E
:10010000FFCF20910101222339F0609126017091E7
:1001100027010E94E1030895FFCF1F920F920FB6AF
:100120000F9211248F939F93EF93FF93E0918C0193
:10013000F0918D01CF01019690938D0180938C01F8
:100140008181882319F08093C60003C081E08093E9
:100150000001FF91EF919F918F910F900FBE0F9033
:100160001F9018951F920F920FB60F9211248F9324
:100170009F93EF93FF93109201018091C600E0914D
:100180002601F09127018083E0912601F09127015B
:100190008081882351F48EE891E090932701809329
:1001A000260181E08093010105C03196F09327017B
:1001B000E0932601FF91EF919F918F910F900FBED9
:1001C0000F901F9018951F920F920FB60F92112447
:1001D0008F939F9395B182E0892785B99F918F91E5
:1001E0000F900FBE0F901F901895880F816083BFEE
:1001F000889508955C9A08955C9808950895DF9312
:10020000CF93CDB7DEB7C456D0400FB6F894DEBF5B
:100210000FBECDBF0E945D0082E091E00E947100A0
:10022000CE0101960E9481000E942E02789482E005
:1002300084B98FEF85B91BB88AB18E7E8AB978945C
:100240000E94EE0280E090E068EC70E042E050E056
:100250000E940A03F7CF1098119AE9EFF0E0319766
:10026000F1F700C00000129AE9EFF0E03197F1F7E2
:1002700000C0000020B122952F7030E02295329509
:10028000307F3227207F32271298E9EFF0E0319754
:10029000F1F700C00000129AE9EFF0E03197F1F7B2
:1002A00000C0000040B11298E9EFF0E03197F1F79B
:1002B00000C0000027FDCFCF009719F0109A1198C9
:1002C00003C082B18C7F82B989EF90E00197F1F78A
:1002D00000C00000129A82B18F7082B982B1962F4D
:1002E000907F892B82B981B1806F81B9E9EFF0E00D
:1002F0003197F1F700C00000129889EF90E0019764
:10030000F1F700C00000129A82B18F7082B982B1F9
:1003100062957295707F7627607F7627682B62B929
:10032000E9EFF0E03197F1F700C00000129889EF93
:1003300090E00197F1F700C0000082B18F7082B9A0
:1003400081B18F7081B90895CF93DF93EC01BC0127
:10035000606880E090E00E942B01D0932501C0935B
:100360002401DF91CF91089580E090E061E070E09A
:100370000E942B0108959B01009719F066E070E040
:1003800002C064E070E081E090E02115310511F4D5
:1003900080E090E0682B792B80E090E00E942B01B8
:1003A0000895009719F0ECE0F0E002C0E8E0F0E01A
:1003B0006115710519F022E030E002C020E030E064
:1003C00081E090E04115510511F480E090E0BF011B
:1003D000682B792B622B732B80E090E00E942B011D
:1003E0000895682F81E090E070E00E942B018091D9
:1003F0002401909125010196909325018093240179
:100400000895CF93DF93EC018881882321F1219611
:100410008A30E1F480912401909125018431910585
:100420002CF480E490E00E94A40112C0883291056F
:100430002CF484E590E00E94A4010AC08435910563
:100440003CF484E190E00E94A40102C00E94F1010A
:1004500089918823E9F6DF91CF91089582B1887060
:1004600082B981B18F7081B981B1876081B985EA24
:100470009EE00197F1F700C0000082B18C7082B954
:1004800082B1806382B989EF90E00197F1F700C0F3
:100490000000129A81B1806F81B989EF90E00197D5
:1004A000F1F700C00000129889EF90E00197F1F792
:1004B00000C0000081B18F7081B981EE94E0019796
:1004C000F1F700C0000082B18C7082B982B1806304
:1004D00082B989EF90E00197F1F700C00000129A0D
:1004E00081B1816F81B989EF90E00197F1F700C088
:1004F0000000129889EF90E00197F1F700C000002A
:1005000081B18F7081B989EF90E00197F1F700C058
:10051000000082B18C7082B982B1806382B989EFA8
:1005200090E00197F1F700C00000129A81B1806F4E
:1005300081B989EF90E00197F1F700C000001298AF
:1005400089EF90E00197F1F700C0000081B18F7052
:1005500081B982B18C7082B9159A89EF90E00197C8
:10056000F1F700C00000129A81B1806F81B989EF64
:1005700090E00197F1F700C00000129889EF90E039
:100580000197F1F700C0000081B18F7081B980E060
:1005900090E068E270E00E942B0180E090E060E073
:1005A00070E040E050E00E94D1010E94B40181E07F
:1005B00090E060E070E00E94BB0181E090E061E0CB
:1005C00070E041E050E00E94D10180E090E00E94A4
:1005D000A40187E091E00E940102089585B7806838
:1005E00085BF85BF88B1807C88B987B18F6387B9A3
:1005F0000895181619066CF420E030E0E9EFF0E0F9
:100600003197F1F700C000002F5F3F4F28173907DF
:10061000ACF308952F923F924F925F926F927F9228
:100620008F929F92AF92BF92CF92DF92EF92FF9202
:100630000F931F93CF93DF93082F7B016A0188B13B
:10064000826288B9161617060CF0A5C0C0E0D0E08B
:100650001AE0BB246894B2F85524689451F89924A0
:10066000689493F80F2EF6E04F2EF02DAA24A39451
:100670000F2EF3E03F2EF02D0F2EF5E02F2EF02D54
:100680008824689484F80F2EF7E07F2EF02D6624DE
:100690001330B9F1143028F41130D9F0123028F5A4
:1006A0000CC0153009F445C01530B8F1163009F406
:1006B0004CC0173009F061C054C0002311F01A2D4E
:1006C00001C0172D88B18B2588B9C6010E94F90297
:1006D0005DC0002311F0152D01C0162D88B18825AD
:1006E00088B9C6010E94F90251C0002311F0132DF0
:1006F00001C01A2D88B1892588B9C6010E94F90266
:1007000045C0002311F01B2D01C0152D88B18B258C
:1007100088B9C6010E94F90239C0002311F0122DD8
:1007200001C0132D88B18A2588B9C6010E94F9023B
:100730002DC0002311F0142D01C01B2D88B1892577
:1007400088B9C6010E94F90221C0002311F0172DBB
:1007500001C0122D88B1882588B9C6010E94F9020E
:1007600015C0002311F0162D01C0142D88B18A2563
:1007700088B9C6010E94F90209C0002311F0162DA4
:1007800001C0172D88B1827E88B9449A2196CE1572
:10079000DF050CF47DCF88B1807C88B9DF91CF91E3
:1007A0001F910F91FF90EF90DF90CF90BF90AF908F
:1007B0009F908F907F906F905F904F903F902F9081
:1007C0000895FB01DC0101900D920020E1F70895EE
:0407D000F894FFCFCB
:1007D400010174657374004C696E6520310A4C69BB
:1007E4006E6520320A4C696E6520330A4C696E6569
:0407F40020340000AD
:00000001FF
