:100000000C943E000C9448000C9448000C9448005A
:100010000C9448000C944A000C9448000C9448003E
:100020000C9448000C9448000C9448000C94480030
:100030000C9448000C9448000C9448000C94480020
:100040000C9448000C9448000C9448000C94480010
:100050000C9448000C9448000C9448000C94480000
:100060000C9448000C9448000C9448000C944800F0
:100070000C9448000C9448000C94480011241FBEB6
:10008000CFEFD0E1DEBFCDBF0E94C0000C94DA00FC
:100090000C9400001F920F920FB60F9211248F93B1
:1000A0009F9385B192E0892785B99F918F910F9099
:1000B0000FBE0F901F901895880F816083BF8895A1
:1000C0000895CF93DF9395B7906895BF98B1907CD2
:1000D00098B997B19F6397B998B1926298B920E0A7
:1000E00030E095E0ACE0F4E1E9E051E13BC0913073
:1000F00079F0913028F09230D1F0933041F51FC063
:10010000882311F091E001C093E048B14F2707C068
:10011000882311F092E001C090E048B14A2748B925
:10012000C3EFD1E02197F1F700C0000019C0882388
:1001300011F093E001C091E048B14E27F0CF882341
:1001400011F090E001C092E048B14527E8CF882344
:1001500011F090E001C093E048B1427E48B9449A62
:100160002F5F3F4F2617370714F288B1807C88B97C
:10017000DF91CF9108955C9A08955C980895089551
:100180000E94D00082E084B98FEF85B91BB88AB194
:100190008E7E8AB980E068EC70E00E946100FACF40
:1001A00082B1887082B981B1866081B981B18E7067
:0801B00081B90895F894FFCF16
:00000001FF
