:100000000C943E000C9448000C9448000C9448005A
:100010000C9448000C944A000C9448000C9448003E
:100020000C9448000C9448000C9448000C94480030
:100030000C9448000C9448000C9448000C94480020
:100040000C9448000C9448000C9448000C94480010
:100050000C9448000C9448000C9448000C94480000
:100060000C9448000C9448000C9448000C944800F0
:100070000C9448000C9448000C94480011241FBEB6
:10008000CFEFD0E1DEBFCDBF0E9485000C94A2006F
:100090000C9400001F920F920FB60F9211242F9311
:1000A0003F938F939F93EF93FF93DF93CF93CDB7BE
:1000B000DEB785E290E025E230E0F901308122E010
:1000C0002327FC012083CF91DF91FF91EF919F9136
:1000D0008F913F912F910F900FBE0F901F90189509
:1000E000DF93CF930F92CDB7DEB7898383E590E09E
:1000F0002981222F30E0220F331F2160FC01208351
:1001000088950F90CF91DF910895DF93CF93CDB76E
:10011000DEB7789484E290E022E0FC01208385E25F
:1001200090E02FEFFC01208388E690E022E0FC01C4
:1001300020838CE690E021E0FC01208382E00E9495
:080140007000FCCFF894FFCF22
:00000001FF
